{
  "_format": "hh-sol-artifact-1",
  "contractName": "PluginRepo",
  "sourceName": "src/framework/plugin/repo/PluginRepo.sol",
  "abi": [
    {
      "inputs": [],
      "stateMutability": "nonpayable",
      "type": "constructor"
    },
    {
      "inputs": [],
      "name": "AnyAddressDisallowedForWhoAndWhere",
      "type": "error"
    },
    {
      "inputs": [],
      "name": "ConditionNotPresentForAnyAddress",
      "type": "error"
    },
    {
      "inputs": [],
      "name": "EmptyReleaseMetadata",
      "type": "error"
    },
    {
      "inputs": [],
      "name": "InvalidPluginSetupInterface",
      "type": "error"
    },
    {
      "inputs": [
        {
          "internalType": "uint8",
          "name": "latestRelease",
          "type": "uint8"
        },
        {
          "internalType": "uint8",
          "name": "newRelease",
          "type": "uint8"
        }
      ],
      "name": "InvalidReleaseIncrement",
      "type": "error"
    },
    {
      "inputs": [
        {
          "internalType": "address",
          "name": "where",
          "type": "address"
        },
        {
          "internalType": "address",
          "name": "who",
          "type": "address"
        },
        {
          "internalType": "bytes32",
          "name": "permissionId",
          "type": "bytes32"
        },
        {
          "internalType": "address",
          "name": "currentCondition",
          "type": "address"
        },
        {
          "internalType": "address",
          "name": "newCondition",
          "type": "address"
        }
      ],
      "name": "PermissionAlreadyGrantedForDifferentCondition",
      "type": "error"
    },
    {
      "inputs": [],
      "name": "PermissionsForAnyAddressDisallowed",
      "type": "error"
    },
    {
      "inputs": [
        {
          "internalType": "uint8",
          "name": "release",
          "type": "uint8"
        },
        {
          "internalType": "uint16",
          "name": "build",
          "type": "uint16"
        },
        {
          "internalType": "address",
          "name": "pluginSetup",
          "type": "address"
        }
      ],
      "name": "PluginSetupAlreadyInPreviousRelease",
      "type": "error"
    },
    {
      "inputs": [],
      "name": "ReleaseDoesNotExist",
      "type": "error"
    },
    {
      "inputs": [],
      "name": "ReleaseZeroNotAllowed",
      "type": "error"
    },
    {
      "inputs": [
        {
          "internalType": "address",
          "name": "where",
          "type": "address"
        },
        {
          "internalType": "address",
          "name": "who",
          "type": "address"
        },
        {
          "internalType": "bytes32",
          "name": "permissionId",
          "type": "bytes32"
        }
      ],
      "name": "Unauthorized",
      "type": "error"
    },
    {
      "inputs": [
        {
          "internalType": "bytes32",
          "name": "versionHash",
          "type": "bytes32"
        }
      ],
      "name": "VersionHashDoesNotExist",
      "type": "error"
    },
    {
      "anonymous": false,
      "inputs": [
        {
          "indexed": false,
          "internalType": "address",
          "name": "previousAdmin",
          "type": "address"
        },
        {
          "indexed": false,
          "internalType": "address",
          "name": "newAdmin",
          "type": "address"
        }
      ],
      "name": "AdminChanged",
      "type": "event"
    },
    {
      "anonymous": false,
      "inputs": [
        {
          "indexed": true,
          "internalType": "address",
          "name": "beacon",
          "type": "address"
        }
      ],
      "name": "BeaconUpgraded",
      "type": "event"
    },
    {
      "anonymous": false,
      "inputs": [
        {
          "indexed": true,
          "internalType": "bytes32",
          "name": "permissionId",
          "type": "bytes32"
        },
        {
          "indexed": true,
          "internalType": "address",
          "name": "here",
          "type": "address"
        },
        {
          "indexed": false,
          "internalType": "address",
          "name": "where",
          "type": "address"
        },
        {
          "indexed": true,
          "internalType": "address",
          "name": "who",
          "type": "address"
        },
        {
          "indexed": false,
          "internalType": "contract IPermissionCondition",
          "name": "condition",
          "type": "address"
        }
      ],
      "name": "Granted",
      "type": "event"
    },
    {
      "anonymous": false,
      "inputs": [
        {
          "indexed": false,
          "internalType": "uint8",
          "name": "version",
          "type": "uint8"
        }
      ],
      "name": "Initialized",
      "type": "event"
    },
    {
      "anonymous": false,
      "inputs": [
        {
          "indexed": false,
          "internalType": "uint8",
          "name": "release",
          "type": "uint8"
        },
        {
          "indexed": false,
          "internalType": "bytes",
          "name": "releaseMetadata",
          "type": "bytes"
        }
      ],
      "name": "ReleaseMetadataUpdated",
      "type": "event"
    },
    {
      "anonymous": false,
      "inputs": [
        {
          "indexed": true,
          "internalType": "bytes32",
          "name": "permissionId",
          "type": "bytes32"
        },
        {
          "indexed": true,
          "internalType": "address",
          "name": "here",
          "type": "address"
        },
        {
          "indexed": false,
          "internalType": "address",
          "name": "where",
          "type": "address"
        },
        {
          "indexed": true,
          "internalType": "address",
          "name": "who",
          "type": "address"
        }
      ],
      "name": "Revoked",
      "type": "event"
    },
    {
      "anonymous": false,
      "inputs": [
        {
          "indexed": true,
          "internalType": "address",
          "name": "implementation",
          "type": "address"
        }
      ],
      "name": "Upgraded",
      "type": "event"
    },
    {
      "anonymous": false,
      "inputs": [
        {
          "indexed": false,
          "internalType": "uint8",
          "name": "release",
          "type": "uint8"
        },
        {
          "indexed": false,
          "internalType": "uint16",
          "name": "build",
          "type": "uint16"
        },
        {
          "indexed": true,
          "internalType": "address",
          "name": "pluginSetup",
          "type": "address"
        },
        {
          "indexed": false,
          "internalType": "bytes",
          "name": "buildMetadata",
          "type": "bytes"
        }
      ],
      "name": "VersionCreated",
      "type": "event"
    },
    {
      "inputs": [],
      "name": "MAINTAINER_PERMISSION_ID",
      "outputs": [
        {
          "internalType": "bytes32",
          "name": "",
          "type": "bytes32"
        }
      ],
      "stateMutability": "view",
      "type": "function"
    },
    {
      "inputs": [],
      "name": "ROOT_PERMISSION_ID",
      "outputs": [
        {
          "internalType": "bytes32",
          "name": "",
          "type": "bytes32"
        }
      ],
      "stateMutability": "view",
      "type": "function"
    },
    {
      "inputs": [],
      "name": "UPGRADE_REPO_PERMISSION_ID",
      "outputs": [
        {
          "internalType": "bytes32",
          "name": "",
          "type": "bytes32"
        }
      ],
      "stateMutability": "view",
      "type": "function"
    },
    {
      "inputs": [
        {
          "components": [
            {
              "internalType": "enum PermissionLib.Operation",
              "name": "operation",
              "type": "uint8"
            },
            {
              "internalType": "address",
              "name": "where",
              "type": "address"
            },
            {
              "internalType": "address",
              "name": "who",
              "type": "address"
            },
            {
              "internalType": "address",
              "name": "condition",
              "type": "address"
            },
            {
              "internalType": "bytes32",
              "name": "permissionId",
              "type": "bytes32"
            }
          ],
          "internalType": "struct PermissionLib.MultiTargetPermission[]",
          "name": "_items",
          "type": "tuple[]"
        }
      ],
      "name": "applyMultiTargetPermissions",
      "outputs": [],
      "stateMutability": "nonpayable",
      "type": "function"
    },
    {
      "inputs": [
        {
          "internalType": "address",
          "name": "_where",
          "type": "address"
        },
        {
          "components": [
            {
              "internalType": "enum PermissionLib.Operation",
              "name": "operation",
              "type": "uint8"
            },
            {
              "internalType": "address",
              "name": "who",
              "type": "address"
            },
            {
              "internalType": "bytes32",
              "name": "permissionId",
              "type": "bytes32"
            }
          ],
          "internalType": "struct PermissionLib.SingleTargetPermission[]",
          "name": "items",
          "type": "tuple[]"
        }
      ],
      "name": "applySingleTargetPermissions",
      "outputs": [],
      "stateMutability": "nonpayable",
      "type": "function"
    },
    {
      "inputs": [
        {
          "internalType": "uint8",
          "name": "_release",
          "type": "uint8"
        }
      ],
      "name": "buildCount",
      "outputs": [
        {
          "internalType": "uint256",
          "name": "",
          "type": "uint256"
        }
      ],
      "stateMutability": "view",
      "type": "function"
    },
    {
      "inputs": [
        {
          "internalType": "uint8",
          "name": "_release",
          "type": "uint8"
        },
        {
          "internalType": "address",
          "name": "_pluginSetup",
          "type": "address"
        },
        {
          "internalType": "bytes",
          "name": "_buildMetadata",
          "type": "bytes"
        },
        {
          "internalType": "bytes",
          "name": "_releaseMetadata",
          "type": "bytes"
        }
      ],
      "name": "createVersion",
      "outputs": [],
      "stateMutability": "nonpayable",
      "type": "function"
    },
    {
      "inputs": [
        {
          "internalType": "address",
          "name": "_pluginSetup",
          "type": "address"
        }
      ],
      "name": "getLatestVersion",
      "outputs": [
        {
          "components": [
            {
              "components": [
                {
                  "internalType": "uint8",
                  "name": "release",
                  "type": "uint8"
                },
                {
                  "internalType": "uint16",
                  "name": "build",
                  "type": "uint16"
                }
              ],
              "internalType": "struct PluginRepo.Tag",
              "name": "tag",
              "type": "tuple"
            },
            {
              "internalType": "address",
              "name": "pluginSetup",
              "type": "address"
            },
            {
              "internalType": "bytes",
              "name": "buildMetadata",
              "type": "bytes"
            }
          ],
          "internalType": "struct PluginRepo.Version",
          "name": "",
          "type": "tuple"
        }
      ],
      "stateMutability": "view",
      "type": "function"
    },
    {
      "inputs": [
        {
          "internalType": "uint8",
          "name": "_release",
          "type": "uint8"
        }
      ],
      "name": "getLatestVersion",
      "outputs": [
        {
          "components": [
            {
              "components": [
                {
                  "internalType": "uint8",
                  "name": "release",
                  "type": "uint8"
                },
                {
                  "internalType": "uint16",
                  "name": "build",
                  "type": "uint16"
                }
              ],
              "internalType": "struct PluginRepo.Tag",
              "name": "tag",
              "type": "tuple"
            },
            {
              "internalType": "address",
              "name": "pluginSetup",
              "type": "address"
            },
            {
              "internalType": "bytes",
              "name": "buildMetadata",
              "type": "bytes"
            }
          ],
          "internalType": "struct PluginRepo.Version",
          "name": "",
          "type": "tuple"
        }
      ],
      "stateMutability": "view",
      "type": "function"
    },
    {
      "inputs": [
        {
          "internalType": "bytes32",
          "name": "_tagHash",
          "type": "bytes32"
        }
      ],
      "name": "getVersion",
      "outputs": [
        {
          "components": [
            {
              "components": [
                {
                  "internalType": "uint8",
                  "name": "release",
                  "type": "uint8"
                },
                {
                  "internalType": "uint16",
                  "name": "build",
                  "type": "uint16"
                }
              ],
              "internalType": "struct PluginRepo.Tag",
              "name": "tag",
              "type": "tuple"
            },
            {
              "internalType": "address",
              "name": "pluginSetup",
              "type": "address"
            },
            {
              "internalType": "bytes",
              "name": "buildMetadata",
              "type": "bytes"
            }
          ],
          "internalType": "struct PluginRepo.Version",
          "name": "",
          "type": "tuple"
        }
      ],
      "stateMutability": "view",
      "type": "function"
    },
    {
      "inputs": [
        {
          "components": [
            {
              "internalType": "uint8",
              "name": "release",
              "type": "uint8"
            },
            {
              "internalType": "uint16",
              "name": "build",
              "type": "uint16"
            }
          ],
          "internalType": "struct PluginRepo.Tag",
          "name": "_tag",
          "type": "tuple"
        }
      ],
      "name": "getVersion",
      "outputs": [
        {
          "components": [
            {
              "components": [
                {
                  "internalType": "uint8",
                  "name": "release",
                  "type": "uint8"
                },
                {
                  "internalType": "uint16",
                  "name": "build",
                  "type": "uint16"
                }
              ],
              "internalType": "struct PluginRepo.Tag",
              "name": "tag",
              "type": "tuple"
            },
            {
              "internalType": "address",
              "name": "pluginSetup",
              "type": "address"
            },
            {
              "internalType": "bytes",
              "name": "buildMetadata",
              "type": "bytes"
            }
          ],
          "internalType": "struct PluginRepo.Version",
          "name": "",
          "type": "tuple"
        }
      ],
      "stateMutability": "view",
      "type": "function"
    },
    {
      "inputs": [
        {
          "internalType": "address",
          "name": "_where",
          "type": "address"
        },
        {
          "internalType": "address",
          "name": "_who",
          "type": "address"
        },
        {
          "internalType": "bytes32",
          "name": "_permissionId",
          "type": "bytes32"
        }
      ],
      "name": "grant",
      "outputs": [],
      "stateMutability": "nonpayable",
      "type": "function"
    },
    {
      "inputs": [
        {
          "internalType": "address",
          "name": "_where",
          "type": "address"
        },
        {
          "internalType": "address",
          "name": "_who",
          "type": "address"
        },
        {
          "internalType": "bytes32",
          "name": "_permissionId",
          "type": "bytes32"
        },
        {
          "internalType": "contract IPermissionCondition",
          "name": "_condition",
          "type": "address"
        }
      ],
      "name": "grantWithCondition",
      "outputs": [],
      "stateMutability": "nonpayable",
      "type": "function"
    },
    {
      "inputs": [
        {
          "internalType": "address",
          "name": "initialOwner",
          "type": "address"
        }
      ],
      "name": "initialize",
      "outputs": [],
      "stateMutability": "nonpayable",
      "type": "function"
    },
    {
      "inputs": [
        {
          "internalType": "address",
          "name": "_where",
          "type": "address"
        },
        {
          "internalType": "address",
          "name": "_who",
          "type": "address"
        },
        {
          "internalType": "bytes32",
          "name": "_permissionId",
          "type": "bytes32"
        },
        {
          "internalType": "bytes",
          "name": "_data",
          "type": "bytes"
        }
      ],
      "name": "isGranted",
      "outputs": [
        {
          "internalType": "bool",
          "name": "",
          "type": "bool"
        }
      ],
      "stateMutability": "view",
      "type": "function"
    },
    {
      "inputs": [],
      "name": "latestRelease",
      "outputs": [
        {
          "internalType": "uint8",
          "name": "",
          "type": "uint8"
        }
      ],
      "stateMutability": "view",
      "type": "function"
    },
    {
      "inputs": [],
      "name": "proxiableUUID",
      "outputs": [
        {
          "internalType": "bytes32",
          "name": "",
          "type": "bytes32"
        }
      ],
      "stateMutability": "view",
      "type": "function"
    },
    {
      "inputs": [
        {
          "internalType": "address",
          "name": "_where",
          "type": "address"
        },
        {
          "internalType": "address",
          "name": "_who",
          "type": "address"
        },
        {
          "internalType": "bytes32",
          "name": "_permissionId",
          "type": "bytes32"
        }
      ],
      "name": "revoke",
      "outputs": [],
      "stateMutability": "nonpayable",
      "type": "function"
    },
    {
      "inputs": [
        {
          "internalType": "bytes4",
          "name": "_interfaceId",
          "type": "bytes4"
        }
      ],
      "name": "supportsInterface",
      "outputs": [
        {
          "internalType": "bool",
          "name": "",
          "type": "bool"
        }
      ],
      "stateMutability": "view",
      "type": "function"
    },
    {
      "inputs": [
        {
          "internalType": "uint8",
          "name": "_release",
          "type": "uint8"
        },
        {
          "internalType": "bytes",
          "name": "_releaseMetadata",
          "type": "bytes"
        }
      ],
      "name": "updateReleaseMetadata",
      "outputs": [],
      "stateMutability": "nonpayable",
      "type": "function"
    },
    {
      "inputs": [
        {
          "internalType": "address",
          "name": "newImplementation",
          "type": "address"
        }
      ],
      "name": "upgradeTo",
      "outputs": [],
      "stateMutability": "nonpayable",
      "type": "function"
    },
    {
      "inputs": [
        {
          "internalType": "address",
          "name": "newImplementation",
          "type": "address"
        },
        {
          "internalType": "bytes",
          "name": "data",
          "type": "bytes"
        }
      ],
      "name": "upgradeToAndCall",
      "outputs": [],
      "stateMutability": "payable",
      "type": "function"
    }
  ],
  "bytecode": "0x60a0604052306080523480156200001557600080fd5b506200002062000026565b620000e8565b600054610100900460ff1615620000935760405162461bcd60e51b815260206004820152602760248201527f496e697469616c697a61626c653a20636f6e747261637420697320696e697469604482015266616c697a696e6760c81b606482015260840160405180910390fd5b60005460ff9081161015620000e6576000805460ff191660ff9081179091556040519081527f7f26b83ff96e1f2b6a682f133852f6798a09c465da95921460cefb38474024989060200160405180910390a15b565b608051612bef62000120600039600081816107c70152818161086201528181610969015281816109ff0152610b440152612bef6000f3fe6080604052600436106101755760003560e01c80639af3e909116100cb578063d68bad2c1161007f578063e0589bd311610059578063e0589bd314610450578063e978afe514610470578063fc0544271461049057600080fd5b8063d68bad2c146103dc578063d96054c4146103fc578063df1d6c441461041c57600080fd5b8063c4d66de8116100b0578063c4d66de814610368578063c9dbc2a414610388578063cc98b8f5146103a857600080fd5b80639af3e90914610314578063afe5eb781461033457600080fd5b80633659cfe61161012d57806352d1902d1161010757806352d1902d146102b35780637be0ca5e146102c85780639aaf9f08146102f457600080fd5b80633659cfe6146102535780634f1ef2861461027357806350abe9101461028657600080fd5b806322844d041161015e57806322844d04146101f15780632675fdd01461021357806328375f671461023357600080fd5b806301ffc9a71461017a57806309e56b14146101af575b600080fd5b34801561018657600080fd5b5061019a6101953660046121c3565b6104b0565b60405190151581526020015b60405180910390f35b3480156101bb57600080fd5b506101e37f815fe80e4b37c8582a3b773d1d7071f983eacfd56b5965db654f3087c25ada3381565b6040519081526020016101a6565b3480156101fd57600080fd5b5061021161020c36600461221a565b61057c565b005b34801561021f57600080fd5b5061019a61022e366004612345565b61064c565b34801561023f57600080fd5b5061021161024e366004612410565b610697565b34801561025f57600080fd5b5061021161026e366004612463565b6107bd565b610211610281366004612480565b61095f565b34801561029257600080fd5b506102a66102a1366004612463565b610aed565b6040516101a69190612520565b3480156102bf57600080fd5b506101e3610b37565b3480156102d457600080fd5b5060cc546102e29060ff1681565b60405160ff90911681526020016101a6565b34801561030057600080fd5b506102a661030f36600461256c565b610bfc565b34801561032057600080fd5b506102a661032f366004612585565b610d53565b34801561034057600080fd5b506101e37fa0885006fe6672eeafd1deca6c67bcdc6dd79cfe2b157a98539ddf73cd8c04ea81565b34801561037457600080fd5b50610211610383366004612463565b610d99565b34801561039457600080fd5b506102116103a336600461259d565b610f10565b3480156103b457600080fd5b506101e37f5aa4f06bdc18535eff05128093a2315c2c960a2722e20021cbff28da04760f5b81565b3480156103e857600080fd5b506102116103f73660046125f0565b610f46565b34801561040857600080fd5b506102116104173660046125f0565b610f81565b34801561042857600080fd5b506101e3610437366004612631565b60ff16600090815260c9602052604090205461ffff1690565b34801561045c57600080fd5b506102a661046b366004612631565b610fb6565b34801561047c57600080fd5b5061021161048b36600461264c565b61101f565b34801561049c57600080fd5b506102116104ab3660046126c1565b611126565b60007fffffffff0000000000000000000000000000000000000000000000000000000082167fd4321b4000000000000000000000000000000000000000000000000000000000148061054357507fffffffff0000000000000000000000000000000000000000000000000000000082167f2b96ad4d00000000000000000000000000000000000000000000000000000000145b8061057657506301ffc9a760e01b7fffffffff000000000000000000000000000000000000000000000000000000008316145b92915050565b7f815fe80e4b37c8582a3b773d1d7071f983eacfd56b5965db654f3087c25ada336105a681611552565b60005b828110156106455760008484838181106105c5576105c5612754565b9050606002018036038101906105db9190612779565b90506000815160028111156105f2576105f26127e2565b0361060f5761060a86826020015183604001516115da565b61063c565b600181516002811115610624576106246127e2565b0361063c5761063c86826020015183604001516115ec565b506001016105a9565b5050505050565b600061065a858585856116f3565b806106735750610673856001600160a01b0385856116f3565b8061068c575061068c6001600160a01b038585856116f3565b90505b949350505050565b7fa0885006fe6672eeafd1deca6c67bcdc6dd79cfe2b157a98539ddf73cd8c04ea6106c181611552565b8360ff166000036106fe576040517f76f52ffa00000000000000000000000000000000000000000000000000000000815260040160405180910390fd5b60cc5460ff9081169085161115610741576040517f11c6e3ab00000000000000000000000000000000000000000000000000000000815260040160405180910390fd5b600082900361077c576040517f88bc3fe700000000000000000000000000000000000000000000000000000000815260040160405180910390fd5b7f8ff94c32efcef376eb02508cba5536e0634c1d6ad4b51ffa0f7306c78edaf5f78484846040516107af93929190612823565b60405180910390a150505050565b6001600160a01b037f00000000000000000000000000000000000000000000000000000000000000001630036108605760405162461bcd60e51b815260206004820152602c60248201527f46756e6374696f6e206d7573742062652063616c6c6564207468726f7567682060448201527f64656c656761746563616c6c000000000000000000000000000000000000000060648201526084015b60405180910390fd5b7f00000000000000000000000000000000000000000000000000000000000000006001600160a01b03166108bb7f360894a13ba1a3210667c828492db98dca3e2076cc3735a920a3ca505d382bbc546001600160a01b031690565b6001600160a01b0316146109375760405162461bcd60e51b815260206004820152602c60248201527f46756e6374696f6e206d7573742062652063616c6c6564207468726f7567682060448201527f6163746976652070726f787900000000000000000000000000000000000000006064820152608401610857565b61094081611867565b6040805160008082526020820190925261095c91839190611891565b50565b6001600160a01b037f00000000000000000000000000000000000000000000000000000000000000001630036109fd5760405162461bcd60e51b815260206004820152602c60248201527f46756e6374696f6e206d7573742062652063616c6c6564207468726f7567682060448201527f64656c656761746563616c6c00000000000000000000000000000000000000006064820152608401610857565b7f00000000000000000000000000000000000000000000000000000000000000006001600160a01b0316610a587f360894a13ba1a3210667c828492db98dca3e2076cc3735a920a3ca505d382bbc546001600160a01b031690565b6001600160a01b031614610ad45760405162461bcd60e51b815260206004820152602c60248201527f46756e6374696f6e206d7573742062652063616c6c6564207468726f7567682060448201527f6163746976652070726f787900000000000000000000000000000000000000006064820152608401610857565b610add82611867565b610ae982826001611891565b5050565b6040805160a081018252600060608083018281526080840183905283526020808401839052838501919091526001600160a01b038516825260cb9052919091205461057690610bfc565b6000306001600160a01b037f00000000000000000000000000000000000000000000000000000000000000001614610bd75760405162461bcd60e51b815260206004820152603860248201527f555550535570677261646561626c653a206d757374206e6f742062652063616c60448201527f6c6564207468726f7567682064656c656761746563616c6c00000000000000006064820152608401610857565b507f360894a13ba1a3210667c828492db98dca3e2076cc3735a920a3ca505d382bbc90565b6040805160a0810182526000606080830182815260808401839052835260208084018390528385019190915284825260ca905291822080549192909160ff169003610c76576040517f8d0aeeb100000000000000000000000000000000000000000000000000000000815260048101849052602401610857565b6040805160a081018252825460ff81166060830190815261010090910461ffff166080830152815260018301546001600160a01b03166020820152600283018054919284929084019190610cc990612840565b80601f0160208091040260200160405190810160405280929190818152602001828054610cf590612840565b8015610d425780601f10610d1757610100808354040283529160200191610d42565b820191906000526020600020905b815481529060010190602001808311610d2557829003601f168201915b505050505081525050915050919050565b6040805160a0810182526000606080830182815260808401839052835260208301919091529181019190915261057661030f610d9436859003850185612874565b611a31565b600054610100900460ff1615808015610db95750600054600160ff909116105b80610dd35750303b158015610dd3575060005460ff166001145b610e455760405162461bcd60e51b815260206004820152602e60248201527f496e697469616c697a61626c653a20636f6e747261637420697320616c72656160448201527f647920696e697469616c697a65640000000000000000000000000000000000006064820152608401610857565b6000805460ff191660011790558015610e68576000805461ff0019166101001790555b610e7182611ac0565b610e9c30837fa0885006fe6672eeafd1deca6c67bcdc6dd79cfe2b157a98539ddf73cd8c04ea6115da565b610ec730837f5aa4f06bdc18535eff05128093a2315c2c960a2722e20021cbff28da04760f5b6115da565b8015610ae9576000805461ff0019169055604051600181527f7f26b83ff96e1f2b6a682f133852f6798a09c465da95921460cefb38474024989060200160405180910390a15050565b7f815fe80e4b37c8582a3b773d1d7071f983eacfd56b5965db654f3087c25ada33610f3a81611552565b61064585858585611b46565b7f815fe80e4b37c8582a3b773d1d7071f983eacfd56b5965db654f3087c25ada33610f7081611552565b610f7b8484846115da565b50505050565b7f815fe80e4b37c8582a3b773d1d7071f983eacfd56b5965db654f3087c25ada33610fab81611552565b610f7b8484846115ec565b6040805160a0810182526000606080830182815260808401839052835260208084018390528385019190915260ff851680835260c982529184902054845180860190955291845261ffff90911690830181905290916110189061030f90611a31565b9392505050565b7f815fe80e4b37c8582a3b773d1d7071f983eacfd56b5965db654f3087c25ada3361104981611552565b60005b82811015610f7b57600084848381811061106857611068612754565b905060a0020180360381019061107e91906128d8565b9050600081516002811115611095576110956127e2565b036110b6576110b18160200151826040015183608001516115da565b61111d565b6001815160028111156110cb576110cb6127e2565b036110e7576110b18160200151826040015183608001516115ec565b6002815160028111156110fc576110fc6127e2565b0361111d5761111d8160200151826040015183608001518460600151611b46565b5060010161104c565b7fa0885006fe6672eeafd1deca6c67bcdc6dd79cfe2b157a98539ddf73cd8c04ea61115081611552565b6111836001600160a01b0387167f99718b5000000000000000000000000000000000000000000000000000000000611e02565b6111b9576040517f9d145ceb00000000000000000000000000000000000000000000000000000000815260040160405180910390fd5b8660ff166000036111f6576040517f76f52ffa00000000000000000000000000000000000000000000000000000000815260040160405180910390fd5b60cc546001906112099060ff168961297d565b60ff1611156112555760cc546040517f53db7b7b00000000000000000000000000000000000000000000000000000000815260ff91821660048201529088166024820152604401610857565b60cc5460ff90811690881611156112b05760cc805460ff191660ff891617905560008290036112b0576040517f88bc3fe700000000000000000000000000000000000000000000000000000000815260040160405180910390fd5b6001600160a01b038616600090815260cb6020908152604080832054835260ca9091529020805460ff16158015906112ef5750805460ff898116911614155b1561134b5780546040517fff9f367400000000000000000000000000000000000000000000000000000000815260ff8216600482015261010090910461ffff1660248201526001600160a01b0388166044820152606401610857565b60ff8816600090815260c9602052604081208054829061136e9061ffff16612996565b91906101000a81548161ffff021916908361ffff16021790559050600060405180604001604052808b60ff1681526020018361ffff16815250905060006113b482611a31565b905060405180606001604052808381526020018b6001600160a01b031681526020018a8a8080601f016020809104026020016040519081016040528093929190818152602001838380828437600092018290525093909452505083815260ca60209081526040918290208451805182549184015161ffff16610100027fffffffffffffffffffffffffffffffffffffffffffffffffffffffffff00000090921660ff90911617178155908401516001820180546001600160a01b0390921673ffffffffffffffffffffffffffffffffffffffff199092169190911790559083015190915060028201906114a79082612a05565b5050506001600160a01b038a16600081815260cb602052604090819020839055517feb4bce5025c5200f6a074dd28fe7754955dfdca0eb2dcbaa16ccc292655e6669906114fb908e9087908e908e90612ac5565b60405180910390a28515611545577f8ff94c32efcef376eb02508cba5536e0634c1d6ad4b51ffa0f7306c78edaf5f78b888860405161153c93929190612823565b60405180910390a15b5050505050505050505050565b6115953033836000368080601f01602080910402602001604051908101604052809392919081815260200183838082843760009201919091525061064c92505050565b61095c576040517f1e09743f00000000000000000000000000000000000000000000000000000000815230600482015233602482015260448101829052606401610857565b6115e78383836002611b46565b505050565b604080517f5045524d495353494f4e000000000000000000000000000000000000000000006020808301919091526bffffffffffffffffffffffff19606086811b8216602a85015287901b16603e830152605280830185905283518084039091018152607290920190925280519101206000906000818152609760205260409020549091506001600160a01b031615610f7b57600081815260976020908152604091829020805473ffffffffffffffffffffffffffffffffffffffff1916905590516001600160a01b038681168252851691339185917f3ca48185ec3f6e47e24db18b13f1c65b1ce05da1659f9c1c4fe717dda5f67524910160405180910390a450505050565b600080609760006117788888886040517f5045524d495353494f4e0000000000000000000000000000000000000000000060208201526bffffffffffffffffffffffff19606084811b8216602a84015285901b16603e820152605281018290526000906072016040516020818303038152906040528051906020012090509392505050565b81526020810191909152604001600020546001600160a01b03169050806117a357600091505061068f565b6001196001600160a01b038216016117bf57600191505061068f565b6040517f2675fdd00000000000000000000000000000000000000000000000000000000081526001600160a01b03821690632675fdd09061180a908990899089908990600401612af6565b602060405180830381865afa925050508015611843575060408051601f3d908101601f1916820190925261184091810190612b28565b60015b1561185b5780156118595760019250505061068f565b505b50600095945050505050565b7f5aa4f06bdc18535eff05128093a2315c2c960a2722e20021cbff28da04760f5b610ae981611552565b7f4910fdfa16fed3260ed0e7147f7cc6da11a60208b5b9406d12a635614ffd91435460ff16156118c4576115e783611e1e565b826001600160a01b03166352d1902d6040518163ffffffff1660e01b8152600401602060405180830381865afa92505050801561191e575060408051601f3d908101601f1916820190925261191b91810190612b4a565b60015b6119905760405162461bcd60e51b815260206004820152602e60248201527f45524331393637557067726164653a206e657720696d706c656d656e7461746960448201527f6f6e206973206e6f7420555550530000000000000000000000000000000000006064820152608401610857565b7f360894a13ba1a3210667c828492db98dca3e2076cc3735a920a3ca505d382bbc8114611a255760405162461bcd60e51b815260206004820152602960248201527f45524331393637557067726164653a20756e737570706f727465642070726f7860448201527f6961626c655555494400000000000000000000000000000000000000000000006064820152608401610857565b506115e7838383611ee9565b600081600001518260200151604051602001611aa392919060f89290921b7fff0000000000000000000000000000000000000000000000000000000000000016825260f01b7fffff00000000000000000000000000000000000000000000000000000000000016600182015260030190565b604051602081830303815290604052805190602001209050919050565b600054610100900460ff16611b3d5760405162461bcd60e51b815260206004820152602b60248201527f496e697469616c697a61626c653a20636f6e7472616374206973206e6f74206960448201527f6e697469616c697a696e670000000000000000000000000000000000000000006064820152608401610857565b61095c81611f0e565b6001600160a01b03848116148015611b6657506001600160a01b03838116145b15611b9d576040517f85f1ba9900000000000000000000000000000000000000000000000000000000815260040160405180910390fd5b6001600160a01b038481161480611bbc57506001600160a01b03838116145b15611c6b5760007f815fe80e4b37c8582a3b773d1d7071f983eacfd56b5965db654f3087c25ada33831480611bee5750805b15611c25576040517f24159e5b00000000000000000000000000000000000000000000000000000000815260040160405180910390fd5b6001196001600160a01b03831601611c69576040517f92ab7d0c00000000000000000000000000000000000000000000000000000000815260040160405180910390fd5b505b604080517f5045524d495353494f4e000000000000000000000000000000000000000000006020808301919091526bffffffffffffffffffffffff19606087811b8216602a85015288901b16603e830152605280830186905283518084039091018152607290920190925280519101206000906000818152609760205260409020549091506001600160a01b03168281611d8457600083815260976020908152604091829020805473ffffffffffffffffffffffffffffffffffffffff19166001600160a01b038581169190911790915582518a8216815287821692810192909252881691339188917f0f579ad49235a8c1fd9041427e7067b1eb10926bbed380bf6fabc73e0e807644910160405180910390a4611df9565b806001600160a01b0316826001600160a01b031614611df9576040517f0b98789e0000000000000000000000000000000000000000000000000000000081526001600160a01b03808916600483015280881660248301526044820187905280841660648301528216608482015260a401610857565b50505050505050565b6000611e0d83611f39565b801561101857506110188383611f84565b6001600160a01b0381163b611e9b5760405162461bcd60e51b815260206004820152602d60248201527f455243313936373a206e657720696d706c656d656e746174696f6e206973206e60448201527f6f74206120636f6e7472616374000000000000000000000000000000000000006064820152608401610857565b7f360894a13ba1a3210667c828492db98dca3e2076cc3735a920a3ca505d382bbc805473ffffffffffffffffffffffffffffffffffffffff19166001600160a01b0392909216919091179055565b611ef28361203a565b600082511180611eff5750805b156115e757610f7b838361207a565b61095c30827f815fe80e4b37c8582a3b773d1d7071f983eacfd56b5965db654f3087c25ada336115da565b6000611f4c826301ffc9a760e01b611f84565b80156105765750611f7d827fffffffff00000000000000000000000000000000000000000000000000000000611f84565b1592915050565b604080517fffffffff000000000000000000000000000000000000000000000000000000008316602480830191909152825180830390910181526044909101909152602080820180517bffffffffffffffffffffffffffffffffffffffffffffffffffffffff166301ffc9a760e01b178152825160009392849283928392918391908a617530fa92503d91506000519050828015612023575060208210155b801561202f5750600081115b979650505050505050565b61204381611e1e565b6040516001600160a01b038216907fbc7cd75a20ee27fd9adebab32041f755214dbc6bffa90cc0225b39da2e5c2d3b90600090a250565b60606001600160a01b0383163b6120f95760405162461bcd60e51b815260206004820152602660248201527f416464726573733a2064656c65676174652063616c6c20746f206e6f6e2d636f60448201527f6e747261637400000000000000000000000000000000000000000000000000006064820152608401610857565b600080846001600160a01b0316846040516121149190612b63565b600060405180830381855af49150503d806000811461214f576040519150601f19603f3d011682016040523d82523d6000602084013e612154565b606091505b509150915061217c8282604051806060016040528060278152602001612b9360279139612185565b95945050505050565b60608315612194575081611018565b61101883838151156121a95781518083602001fd5b8060405162461bcd60e51b81526004016108579190612b7f565b6000602082840312156121d557600080fd5b81357fffffffff000000000000000000000000000000000000000000000000000000008116811461101857600080fd5b6001600160a01b038116811461095c57600080fd5b60008060006040848603121561222f57600080fd5b833561223a81612205565b9250602084013567ffffffffffffffff8082111561225757600080fd5b818601915086601f83011261226b57600080fd5b81358181111561227a57600080fd5b87602060608302850101111561228f57600080fd5b6020830194508093505050509250925092565b634e487b7160e01b600052604160045260246000fd5b600082601f8301126122c957600080fd5b813567ffffffffffffffff808211156122e4576122e46122a2565b604051601f8301601f19908116603f0116810190828211818310171561230c5761230c6122a2565b8160405283815286602085880101111561232557600080fd5b836020870160208301376000602085830101528094505050505092915050565b6000806000806080858703121561235b57600080fd5b843561236681612205565b9350602085013561237681612205565b925060408501359150606085013567ffffffffffffffff81111561239957600080fd5b6123a5878288016122b8565b91505092959194509250565b803560ff811681146123c257600080fd5b919050565b60008083601f8401126123d957600080fd5b50813567ffffffffffffffff8111156123f157600080fd5b60208301915083602082850101111561240957600080fd5b9250929050565b60008060006040848603121561242557600080fd5b61242e846123b1565b9250602084013567ffffffffffffffff81111561244a57600080fd5b612456868287016123c7565b9497909650939450505050565b60006020828403121561247557600080fd5b813561101881612205565b6000806040838503121561249357600080fd5b823561249e81612205565b9150602083013567ffffffffffffffff8111156124ba57600080fd5b6124c6858286016122b8565b9150509250929050565b60005b838110156124eb5781810151838201526020016124d3565b50506000910152565b6000815180845261250c8160208601602086016124d0565b601f01601f19169290920160200192915050565b602081526000825160ff815116602084015261ffff6020820151166040840152506001600160a01b036020840151166060830152604083015160808084015261068f60a08401826124f4565b60006020828403121561257e57600080fd5b5035919050565b60006040828403121561259757600080fd5b50919050565b600080600080608085870312156125b357600080fd5b84356125be81612205565b935060208501356125ce81612205565b92506040850135915060608501356125e581612205565b939692955090935050565b60008060006060848603121561260557600080fd5b833561261081612205565b9250602084013561262081612205565b929592945050506040919091013590565b60006020828403121561264357600080fd5b611018826123b1565b6000806020838503121561265f57600080fd5b823567ffffffffffffffff8082111561267757600080fd5b818501915085601f83011261268b57600080fd5b81358181111561269a57600080fd5b86602060a0830285010111156126af57600080fd5b60209290920196919550909350505050565b600080600080600080608087890312156126da57600080fd5b6126e3876123b1565b955060208701356126f381612205565b9450604087013567ffffffffffffffff8082111561271057600080fd5b61271c8a838b016123c7565b9096509450606089013591508082111561273557600080fd5b5061274289828a016123c7565b979a9699509497509295939492505050565b634e487b7160e01b600052603260045260246000fd5b8035600381106123c257600080fd5b60006060828403121561278b57600080fd5b6040516060810181811067ffffffffffffffff821117156127ae576127ae6122a2565b6040526127ba8361276a565b815260208301356127ca81612205565b60208201526040928301359281019290925250919050565b634e487b7160e01b600052602160045260246000fd5b818352818160208501375060006020828401015260006020601f19601f840116840101905092915050565b60ff8416815260406020820152600061068c6040830184866127f8565b600181811c9082168061285457607f821691505b60208210810361259757634e487b7160e01b600052602260045260246000fd5b60006040828403121561288657600080fd5b6040516040810181811067ffffffffffffffff821117156128a9576128a96122a2565b6040526128b5836123b1565b8152602083013561ffff811681146128cc57600080fd5b60208201529392505050565b600060a082840312156128ea57600080fd5b60405160a0810181811067ffffffffffffffff8211171561290d5761290d6122a2565b6040526129198361276a565b8152602083013561292981612205565b6020820152604083013561293c81612205565b6040820152606083013561294f81612205565b60608201526080928301359281019290925250919050565b634e487b7160e01b600052601160045260246000fd5b60ff828116828216039081111561057657610576612967565b600061ffff8083168181036129ad576129ad612967565b6001019392505050565b601f8211156115e757600081815260208120601f850160051c810160208610156129de5750805b601f850160051c820191505b818110156129fd578281556001016129ea565b505050505050565b815167ffffffffffffffff811115612a1f57612a1f6122a2565b612a3381612a2d8454612840565b846129b7565b602080601f831160018114612a685760008415612a505750858301515b600019600386901b1c1916600185901b1785556129fd565b600085815260208120601f198616915b82811015612a9757888601518255948401946001909101908401612a78565b5085821015612ab55787850151600019600388901b60f8161c191681555b5050505050600190811b01905550565b60ff8516815261ffff84166020820152606060408201526000612aec6060830184866127f8565b9695505050505050565b60006001600160a01b03808716835280861660208401525083604083015260806060830152612aec60808301846124f4565b600060208284031215612b3a57600080fd5b8151801515811461101857600080fd5b600060208284031215612b5c57600080fd5b5051919050565b60008251612b758184602087016124d0565b9190910192915050565b60208152600061101860208301846124f456fe416464726573733a206c6f772d6c6576656c2064656c65676174652063616c6c206661696c6564a26469706673582212200a418eac035c06e6961949f39aebbb90cf4bb06bd9dfbd73d8bbac8ba693e32d64736f6c63430008110033",
  "linkReferences": {},
  "deployedLinkReferences": {}
}