{
  "address": "0xFFFFCD9ED4700f6Cdd8B391A729789a2A2752795",
  "abi": [
    {
      "inputs": [],
      "stateMutability": "nonpayable",
      "type": "constructor"
    },
    {
      "inputs": [
        {
          "internalType": "uint16",
          "name": "fromBuild",
          "type": "uint16"
        },
        {
          "internalType": "uint16",
          "name": "thisBuild",
          "type": "uint16"
        }
      ],
      "name": "InvalidUpdatePath",
      "type": "error"
    },
    {
      "inputs": [],
      "name": "implementation",
      "outputs": [
        {
          "internalType": "address",
          "name": "",
          "type": "address"
        }
      ],
      "stateMutability": "view",
      "type": "function"
    },
    {
      "inputs": [
        {
          "internalType": "address",
          "name": "_dao",
          "type": "address"
        },
        {
          "internalType": "bytes",
          "name": "_data",
          "type": "bytes"
        }
      ],
      "name": "prepareInstallation",
      "outputs": [
        {
          "internalType": "address",
          "name": "plugin",
          "type": "address"
        },
        {
          "components": [
            {
              "internalType": "address[]",
              "name": "helpers",
              "type": "address[]"
            },
            {
              "components": [
                {
                  "internalType": "enum PermissionLib.Operation",
                  "name": "operation",
                  "type": "uint8"
                },
                {
                  "internalType": "address",
                  "name": "where",
                  "type": "address"
                },
                {
                  "internalType": "address",
                  "name": "who",
                  "type": "address"
                },
                {
                  "internalType": "address",
                  "name": "condition",
                  "type": "address"
                },
                {
                  "internalType": "bytes32",
                  "name": "permissionId",
                  "type": "bytes32"
                }
              ],
              "internalType": "struct PermissionLib.MultiTargetPermission[]",
              "name": "permissions",
              "type": "tuple[]"
            }
          ],
          "internalType": "struct IPluginSetup.PreparedSetupData",
          "name": "preparedSetupData",
          "type": "tuple"
        }
      ],
      "stateMutability": "nonpayable",
      "type": "function"
    },
    {
      "inputs": [
        {
          "internalType": "address",
          "name": "_dao",
          "type": "address"
        },
        {
          "components": [
            {
              "internalType": "address",
              "name": "plugin",
              "type": "address"
            },
            {
              "internalType": "address[]",
              "name": "currentHelpers",
              "type": "address[]"
            },
            {
              "internalType": "bytes",
              "name": "data",
              "type": "bytes"
            }
          ],
          "internalType": "struct IPluginSetup.SetupPayload",
          "name": "_payload",
          "type": "tuple"
        }
      ],
      "name": "prepareUninstallation",
      "outputs": [
        {
          "components": [
            {
              "internalType": "enum PermissionLib.Operation",
              "name": "operation",
              "type": "uint8"
            },
            {
              "internalType": "address",
              "name": "where",
              "type": "address"
            },
            {
              "internalType": "address",
              "name": "who",
              "type": "address"
            },
            {
              "internalType": "address",
              "name": "condition",
              "type": "address"
            },
            {
              "internalType": "bytes32",
              "name": "permissionId",
              "type": "bytes32"
            }
          ],
          "internalType": "struct PermissionLib.MultiTargetPermission[]",
          "name": "permissions",
          "type": "tuple[]"
        }
      ],
      "stateMutability": "pure",
      "type": "function"
    },
    {
      "inputs": [
        {
          "internalType": "address",
          "name": "_dao",
          "type": "address"
        },
        {
          "internalType": "uint16",
          "name": "_fromBuild",
          "type": "uint16"
        },
        {
          "components": [
            {
              "internalType": "address",
              "name": "plugin",
              "type": "address"
            },
            {
              "internalType": "address[]",
              "name": "currentHelpers",
              "type": "address[]"
            },
            {
              "internalType": "bytes",
              "name": "data",
              "type": "bytes"
            }
          ],
          "internalType": "struct IPluginSetup.SetupPayload",
          "name": "_payload",
          "type": "tuple"
        }
      ],
      "name": "prepareUpdate",
      "outputs": [
        {
          "internalType": "bytes",
          "name": "",
          "type": "bytes"
        },
        {
          "components": [
            {
              "internalType": "address[]",
              "name": "helpers",
              "type": "address[]"
            },
            {
              "components": [
                {
                  "internalType": "enum PermissionLib.Operation",
                  "name": "operation",
                  "type": "uint8"
                },
                {
                  "internalType": "address",
                  "name": "where",
                  "type": "address"
                },
                {
                  "internalType": "address",
                  "name": "who",
                  "type": "address"
                },
                {
                  "internalType": "address",
                  "name": "condition",
                  "type": "address"
                },
                {
                  "internalType": "bytes32",
                  "name": "permissionId",
                  "type": "bytes32"
                }
              ],
              "internalType": "struct PermissionLib.MultiTargetPermission[]",
              "name": "permissions",
              "type": "tuple[]"
            }
          ],
          "internalType": "struct IPluginSetup.PreparedSetupData",
          "name": "",
          "type": "tuple"
        }
      ],
      "stateMutability": "pure",
      "type": "function"
    },
    {
      "inputs": [],
      "name": "protocolVersion",
      "outputs": [
        {
          "internalType": "uint8[3]",
          "name": "",
          "type": "uint8[3]"
        }
      ],
      "stateMutability": "pure",
      "type": "function"
    },
    {
      "inputs": [
        {
          "internalType": "bytes4",
          "name": "_interfaceId",
          "type": "bytes4"
        }
      ],
      "name": "supportsInterface",
      "outputs": [
        {
          "internalType": "bool",
          "name": "",
          "type": "bool"
        }
      ],
      "stateMutability": "view",
      "type": "function"
    }
  ],
  "transactionHash": "0x9202f24c4fa0aa28993960783557caed4cc57e9c8ea4f953b045dd58c85d7e19",
  "args": [],
  "numDeployments": 2,
  "solcInputHash": "e1850967bc2c6ff7c5eff81e8fa31ea3",
  "bytecode": "0x60a060405234801561001057600080fd5b5060405161001d9061004b565b604051809103906000f080158015610039573d6000803e3d6000fd5b506001600160a01b0316608052610058565b6113718061118383390190565b60805161110a6100796000396000818160d201526103cc015261110a6000f3fe60806040523480156200001157600080fd5b50600436106200007b5760003560e01c80639cb0a12411620000565780639cb0a12414620000fd578063a8a9c29e1462000123578063f10832f1146200014a57600080fd5b806301ffc9a714620000805780632ae9c60014620000ac5780635c60da1b14620000c5575b600080fd5b620000976200009136600462000555565b62000171565b60405190151581526020015b60405180910390f35b620000b6620001c4565b604051620000a3919062000588565b6040516001600160a01b037f0000000000000000000000000000000000000000000000000000000000000000168152602001620000a3565b620001146200010e366004620005f4565b620001f0565b604051620000a39190620006af565b6200013a62000134366004620006fc565b620002e0565b604051620000a39291906200084b565b620001616200015b36600462000893565b62000327565b604051620000a392919062000961565b60006001600160e01b0319821663099718b560e41b1480620001a257506001600160e01b03198216621574e360e91b145b80620001be57506301ffc9a760e01b6001600160e01b03198316145b92915050565b620001ce62000529565b5060408051606081018252600181526004602082015260009181019190915290565b604080516001808252818301909252606091816020015b6040805160a081018252600080825260208083018290529282018190526060820181905260808201528252600019909201910181620002075750506040805160a081019091526001815290915060208082019062000268908501856200098d565b6001600160a01b03168152602001846001600160a01b0316815260200160006001600160a01b031681526020017ff3c069b9d73f22a284db371233c4924669b347e0824a390e9ba432a7b7078e6981525081600081518110620002cf57620002cf620009ab565b602002602001018190525092915050565b606062000300604051806040016040528060608152602001606081525090565b60405163098990c560e11b8152600060048201526001602482015260440160405180910390fd5b600062000347604051806040016040528060608152602001606081525090565b6000838060200190518101906200035f9190620009c1565b6040516001600160a01b038716602482015260448101829052909150620003f39060640160408051601f198184030181529190526020810180517bffffffffffffffffffffffffffffffffffffffffffffffffffffffff1663cd6dc68760e01b1790526001600160a01b037f00000000000000000000000000000000000000000000000000000000000000001690620004e5565b60408051600180825281830190925291945060009190816020015b6040805160a0810182526000808252602080830182905292820181905260608201819052608082015282526000199092019101816200040e579050506040805160a081019091529091508060008152602001856001600160a01b03168152602001876001600160a01b0316815260200160006001600160a01b031681526020017ff3c069b9d73f22a284db371233c4924669b347e0824a390e9ba432a7b7078e6981525081600081518110620004c857620004c8620009ab565b602002602001018190525080836020018190525050509250929050565b60008282604051620004f79062000547565b62000504929190620009db565b604051809103906000f08015801562000521573d6000803e3d6000fd5b509392505050565b60405180606001604052806003906020820280368337509192915050565b6106fe8062000a0083390190565b6000602082840312156200056857600080fd5b81356001600160e01b0319811681146200058157600080fd5b9392505050565b60608101818360005b6003811015620005b557815160ff1683526020928301929091019060010162000591565b50505092915050565b80356001600160a01b0381168114620005d657600080fd5b919050565b600060608284031215620005ee57600080fd5b50919050565b600080604083850312156200060857600080fd5b6200061383620005be565b9150602083013567ffffffffffffffff8111156200063057600080fd5b6200063e85828601620005db565b9150509250929050565b60008151600381106200066b57634e487b7160e01b600052602160045260246000fd5b8352506020818101516001600160a01b0390811691840191909152604080830151821690840152606080830151909116908301526080908101519082015260a00190565b6020808252825182820181905260009190848201906040850190845b81811015620006f057620006e183855162000648565b938501939250600101620006cb565b50909695505050505050565b6000806000606084860312156200071257600080fd5b6200071d84620005be565b9250602084013561ffff811681146200073557600080fd5b9150604084013567ffffffffffffffff8111156200075257600080fd5b6200076086828701620005db565b9150509250925092565b6000815180845260005b81811015620007925760208185018101518683018201520162000774565b506000602082860101526020601f19601f83011685010191505092915050565b805160408084528151908401819052600091602091908201906060860190845b81811015620007f95783516001600160a01b031683529284019291840191600101620007d2565b50508483015186820387850152805180835290840192506000918401905b8083101562000840576200082d82855162000648565b9150848401935060018301925062000817565b509695505050505050565b6040815260006200086060408301856200076a565b8281036020840152620008748185620007b2565b95945050505050565b634e487b7160e01b600052604160045260246000fd5b60008060408385031215620008a757600080fd5b620008b283620005be565b9150602083013567ffffffffffffffff80821115620008d057600080fd5b818501915085601f830112620008e557600080fd5b813581811115620008fa57620008fa6200087d565b604051601f8201601f19908116603f011681019083821181831017156200092557620009256200087d565b816040528281528860208487010111156200093f57600080fd5b8260208601602083013760006020848301015280955050505050509250929050565b6001600160a01b0383168152604060208201526000620009856040830184620007b2565b949350505050565b600060208284031215620009a057600080fd5b6200058182620005be565b634e487b7160e01b600052603260045260246000fd5b600060208284031215620009d457600080fd5b5051919050565b6001600160a01b03831681526040602082015260006200098560408301846200076a56fe60806040526040516106fe3803806106fe83398101604081905261002291610319565b61002e82826000610035565b5050610436565b61003e8361006b565b60008251118061004b5750805b156100665761006483836100ab60201b6100291760201c565b505b505050565b610074816100d7565b6040516001600160a01b038216907fbc7cd75a20ee27fd9adebab32041f755214dbc6bffa90cc0225b39da2e5c2d3b90600090a250565b60606100d083836040518060600160405280602781526020016106d7602791396101a9565b9392505050565b6100ea8161022260201b6100551760201c565b6101515760405162461bcd60e51b815260206004820152602d60248201527f455243313936373a206e657720696d706c656d656e746174696f6e206973206e60448201526c1bdd08184818dbdb9d1c9858dd609a1b60648201526084015b60405180910390fd5b806101887f360894a13ba1a3210667c828492db98dca3e2076cc3735a920a3ca505d382bbc60001b61023160201b6100641760201c565b80546001600160a01b0319166001600160a01b039290921691909117905550565b6060600080856001600160a01b0316856040516101c691906103e7565b600060405180830381855af49150503d8060008114610201576040519150601f19603f3d011682016040523d82523d6000602084013e610206565b606091505b50909250905061021886838387610234565b9695505050505050565b6001600160a01b03163b151590565b90565b606083156102a357825160000361029c576001600160a01b0385163b61029c5760405162461bcd60e51b815260206004820152601d60248201527f416464726573733a2063616c6c20746f206e6f6e2d636f6e74726163740000006044820152606401610148565b50816102ad565b6102ad83836102b5565b949350505050565b8151156102c55781518083602001fd5b8060405162461bcd60e51b81526004016101489190610403565b634e487b7160e01b600052604160045260246000fd5b60005b838110156103105781810151838201526020016102f8565b50506000910152565b6000806040838503121561032c57600080fd5b82516001600160a01b038116811461034357600080fd5b60208401519092506001600160401b038082111561036057600080fd5b818501915085601f83011261037457600080fd5b815181811115610386576103866102df565b604051601f8201601f19908116603f011681019083821181831017156103ae576103ae6102df565b816040528281528860208487010111156103c757600080fd5b6103d88360208301602088016102f5565b80955050505050509250929050565b600082516103f98184602087016102f5565b9190910192915050565b60208152600082518060208401526104228160408501602087016102f5565b601f01601f19169190910160400192915050565b610292806104456000396000f3fe60806040523661001357610011610017565b005b6100115b610027610022610067565b61009f565b565b606061004e838360405180606001604052806027815260200161025f602791396100c3565b9392505050565b6001600160a01b03163b151590565b90565b600061009a7f360894a13ba1a3210667c828492db98dca3e2076cc3735a920a3ca505d382bbc546001600160a01b031690565b905090565b3660008037600080366000845af43d6000803e8080156100be573d6000f35b3d6000fd5b6060600080856001600160a01b0316856040516100e0919061020f565b600060405180830381855af49150503d806000811461011b576040519150601f19603f3d011682016040523d82523d6000602084013e610120565b606091505b50915091506101318683838761013b565b9695505050505050565b606083156101af5782516000036101a8576001600160a01b0385163b6101a85760405162461bcd60e51b815260206004820152601d60248201527f416464726573733a2063616c6c20746f206e6f6e2d636f6e747261637400000060448201526064015b60405180910390fd5b50816101b9565b6101b983836101c1565b949350505050565b8151156101d15781518083602001fd5b8060405162461bcd60e51b815260040161019f919061022b565b60005b838110156102065781810151838201526020016101ee565b50506000910152565b600082516102218184602087016101eb565b9190910192915050565b602081526000825180602084015261024a8160408501602087016101eb565b601f01601f1916919091016040019291505056fe416464726573733a206c6f772d6c6576656c2064656c65676174652063616c6c206661696c6564a164736f6c6343000811000a416464726573733a206c6f772d6c6576656c2064656c65676174652063616c6c206661696c6564a164736f6c6343000811000a60a06040523060805234801561001457600080fd5b5061001d61002a565b61002561002a565b6100e9565b600054610100900460ff16156100965760405162461bcd60e51b815260206004820152602760248201527f496e697469616c697a61626c653a20636f6e747261637420697320696e697469604482015266616c697a696e6760c81b606482015260840160405180910390fd5b60005460ff908116146100e7576000805460ff191660ff9081179091556040519081527f7f26b83ff96e1f2b6a682f133852f6798a09c465da95921460cefb38474024989060200160405180910390a15b565b60805161125161012060003960008181610348015281816103d2015281816104c80152818161054d015261063701526112516000f3fe6080604052600436106100d25760003560e01c806352d1902d1161007f5780639c61f97e116100595780639c61f97e14610200578063b633941814610234578063c9c4bfca14610254578063cd6dc6871461028857600080fd5b806352d1902d146101b15780635c60da1b146101d45780638381f58a146101e957600080fd5b80634162169f116100b05780634162169f1461015057806341de6830146101825780634f1ef2861461019e57600080fd5b806301ffc9a7146100d75780632ae9c6001461010c5780633659cfe61461012e575b600080fd5b3480156100e357600080fd5b506100f76100f2366004610f44565b6102a8565b60405190151581526020015b60405180910390f35b34801561011857600080fd5b50610121610314565b6040516101039190610f6e565b34801561013a57600080fd5b5061014e610149366004610fb7565b61033e565b005b34801561015c57600080fd5b5060c9546001600160a01b03165b6040516001600160a01b039091168152602001610103565b34801561018e57600080fd5b5060006040516101039190610fd4565b61014e6101ac366004611012565b6104be565b3480156101bd57600080fd5b506101c661062a565b604051908152602001610103565b3480156101e057600080fd5b5061016a6106ef565b3480156101f557600080fd5b506101c661012d5481565b34801561020c57600080fd5b506101c67ff3c069b9d73f22a284db371233c4924669b347e0824a390e9ba432a7b7078e6981565b34801561024057600080fd5b5061014e61024f3660046110d6565b610727565b34801561026057600080fd5b506101c67f821b6e3a557148015a918c89e5d092e878a69854a2d1a410635f771bd5a8a3f581565b34801561029457600080fd5b5061014e6102a33660046110ef565b6107a2565b60006001600160e01b0319821663041de68360e41b14806102d857506001600160e01b03198216621574e360e91b145b806102f357506001600160e01b031982166352d1902d60e01b145b8061030e57506301ffc9a760e01b6001600160e01b03198316145b92915050565b61031c610f26565b5060408051606081018252600181526004602082015260009181019190915290565b6001600160a01b037f00000000000000000000000000000000000000000000000000000000000000001630036103d05760405162461bcd60e51b815260206004820152602c60248201527f46756e6374696f6e206d7573742062652063616c6c6564207468726f7567682060448201526b19195b1959d85d1958d85b1b60a21b60648201526084015b60405180910390fd5b7f00000000000000000000000000000000000000000000000000000000000000006001600160a01b031661042b7f360894a13ba1a3210667c828492db98dca3e2076cc3735a920a3ca505d382bbc546001600160a01b031690565b6001600160a01b0316146104965760405162461bcd60e51b815260206004820152602c60248201527f46756e6374696f6e206d7573742062652063616c6c6564207468726f7567682060448201526b6163746976652070726f787960a01b60648201526084016103c7565b61049f816108fe565b604080516000808252602082019092526104bb91839190610937565b50565b6001600160a01b037f000000000000000000000000000000000000000000000000000000000000000016300361054b5760405162461bcd60e51b815260206004820152602c60248201527f46756e6374696f6e206d7573742062652063616c6c6564207468726f7567682060448201526b19195b1959d85d1958d85b1b60a21b60648201526084016103c7565b7f00000000000000000000000000000000000000000000000000000000000000006001600160a01b03166105a67f360894a13ba1a3210667c828492db98dca3e2076cc3735a920a3ca505d382bbc546001600160a01b031690565b6001600160a01b0316146106115760405162461bcd60e51b815260206004820152602c60248201527f46756e6374696f6e206d7573742062652063616c6c6564207468726f7567682060448201526b6163746976652070726f787960a01b60648201526084016103c7565b61061a826108fe565b61062682826001610937565b5050565b6000306001600160a01b037f000000000000000000000000000000000000000000000000000000000000000016146106ca5760405162461bcd60e51b815260206004820152603860248201527f555550535570677261646561626c653a206d757374206e6f742062652063616c60448201527f6c6564207468726f7567682064656c656761746563616c6c000000000000000060648201526084016103c7565b507f360894a13ba1a3210667c828492db98dca3e2076cc3735a920a3ca505d382bbc90565b60006107227f360894a13ba1a3210667c828492db98dca3e2076cc3735a920a3ca505d382bbc546001600160a01b031690565b905090565b60c9547ff3c069b9d73f22a284db371233c4924669b347e0824a390e9ba432a7b7078e6990610765906001600160a01b031630335b84600036610ad7565b61012d8290556040518281527f3564ffb2fd8f93d7b0e9d1173ffdff5ee9775d860bfe82eaca0d0dbe07c8b6349060200160405180910390a15050565b600054610100900460ff16158080156107c25750600054600160ff909116105b806107dc5750303b1580156107dc575060005460ff166001145b61084e5760405162461bcd60e51b815260206004820152602e60248201527f496e697469616c697a61626c653a20636f6e747261637420697320616c72656160448201527f647920696e697469616c697a656400000000000000000000000000000000000060648201526084016103c7565b6000805460ff191660011790558015610871576000805461ff0019166101001790555b61087a83610b93565b61012d8290556040518281527f3564ffb2fd8f93d7b0e9d1173ffdff5ee9775d860bfe82eaca0d0dbe07c8b6349060200160405180910390a180156108f9576000805461ff0019169055604051600181527f7f26b83ff96e1f2b6a682f133852f6798a09c465da95921460cefb38474024989060200160405180910390a15b505050565b60c9547f821b6e3a557148015a918c89e5d092e878a69854a2d1a410635f771bd5a8a3f590610626906001600160a01b0316303361075c565b7f4910fdfa16fed3260ed0e7147f7cc6da11a60208b5b9406d12a635614ffd91435460ff161561096a576108f983610c07565b826001600160a01b03166352d1902d6040518163ffffffff1660e01b8152600401602060405180830381865afa9250505080156109c4575060408051601f3d908101601f191682019092526109c19181019061111b565b60015b610a365760405162461bcd60e51b815260206004820152602e60248201527f45524331393637557067726164653a206e657720696d706c656d656e7461746960448201527f6f6e206973206e6f74205555505300000000000000000000000000000000000060648201526084016103c7565b7f360894a13ba1a3210667c828492db98dca3e2076cc3735a920a3ca505d382bbc8114610acb5760405162461bcd60e51b815260206004820152602960248201527f45524331393637557067726164653a20756e737570706f727465642070726f7860448201527f6961626c6555554944000000000000000000000000000000000000000000000060648201526084016103c7565b506108f9838383610cd2565b604051637ef7c88360e11b81526001600160a01b0387169063fdef910690610b0b9088908890889088908890600401611134565b602060405180830381865afa158015610b28573d6000803e3d6000fd5b505050506040513d601f19601f82011682018060405250810190610b4c9190611188565b610b8b57604051630cb6f8ed60e21b81526001600160a01b038088166004830152808716602483015285166044820152606481018490526084016103c7565b505050505050565b600054610100900460ff16610bfe5760405162461bcd60e51b815260206004820152602b60248201527f496e697469616c697a61626c653a20636f6e7472616374206973206e6f74206960448201526a6e697469616c697a696e6760a81b60648201526084016103c7565b6104bb81610cfd565b6001600160a01b0381163b610c845760405162461bcd60e51b815260206004820152602d60248201527f455243313936373a206e657720696d706c656d656e746174696f6e206973206e60448201527f6f74206120636f6e74726163740000000000000000000000000000000000000060648201526084016103c7565b7f360894a13ba1a3210667c828492db98dca3e2076cc3735a920a3ca505d382bbc805473ffffffffffffffffffffffffffffffffffffffff19166001600160a01b0392909216919091179055565b610cdb83610d97565b600082511180610ce85750805b156108f957610cf78383610dd7565b50505050565b600054610100900460ff16610d685760405162461bcd60e51b815260206004820152602b60248201527f496e697469616c697a61626c653a20636f6e7472616374206973206e6f74206960448201526a6e697469616c697a696e6760a81b60648201526084016103c7565b60c9805473ffffffffffffffffffffffffffffffffffffffff19166001600160a01b0392909216919091179055565b610da081610c07565b6040516001600160a01b038216907fbc7cd75a20ee27fd9adebab32041f755214dbc6bffa90cc0225b39da2e5c2d3b90600090a250565b6060610dfc838360405180606001604052806027815260200161121e60279139610e03565b9392505050565b6060600080856001600160a01b031685604051610e2091906111ce565b600060405180830381855af49150503d8060008114610e5b576040519150601f19603f3d011682016040523d82523d6000602084013e610e60565b606091505b5091509150610e7186838387610e7b565b9695505050505050565b60608315610eea578251600003610ee3576001600160a01b0385163b610ee35760405162461bcd60e51b815260206004820152601d60248201527f416464726573733a2063616c6c20746f206e6f6e2d636f6e747261637400000060448201526064016103c7565b5081610ef4565b610ef48383610efc565b949350505050565b815115610f0c5781518083602001fd5b8060405162461bcd60e51b81526004016103c791906111ea565b60405180606001604052806003906020820280368337509192915050565b600060208284031215610f5657600080fd5b81356001600160e01b031981168114610dfc57600080fd5b60608101818360005b6003811015610f9957815160ff16835260209283019290910190600101610f77565b50505092915050565b6001600160a01b03811681146104bb57600080fd5b600060208284031215610fc957600080fd5b8135610dfc81610fa2565b6020810160038310610ff657634e487b7160e01b600052602160045260246000fd5b91905290565b634e487b7160e01b600052604160045260246000fd5b6000806040838503121561102557600080fd5b823561103081610fa2565b9150602083013567ffffffffffffffff8082111561104d57600080fd5b818501915085601f83011261106157600080fd5b81358181111561107357611073610ffc565b604051601f8201601f19908116603f0116810190838211818310171561109b5761109b610ffc565b816040528281528860208487010111156110b457600080fd5b8260208601602083013760006020848301015280955050505050509250929050565b6000602082840312156110e857600080fd5b5035919050565b6000806040838503121561110257600080fd5b823561110d81610fa2565b946020939093013593505050565b60006020828403121561112d57600080fd5b5051919050565b60006001600160a01b03808816835280871660208401525084604083015260806060830152826080830152828460a0840137600060a0848401015260a0601f19601f85011683010190509695505050505050565b60006020828403121561119a57600080fd5b81518015158114610dfc57600080fd5b60005b838110156111c55781810151838201526020016111ad565b50506000910152565b600082516111e08184602087016111aa565b9190910192915050565b60208152600082518060208401526112098160408501602087016111aa565b601f01601f1916919091016040019291505056fe416464726573733a206c6f772d6c6576656c2064656c65676174652063616c6c206661696c6564a164736f6c6343000811000a",
  "devdoc": {
    "details": "Release 1, Build 1",
    "errors": {
      "InvalidUpdatePath(uint16,uint16)": [
        {
          "params": {
            "fromBuild": "The build number to update from.",
            "thisBuild": "The build number of this setup to update to."
          }
        }
      ]
    },
    "kind": "dev",
    "methods": {
      "constructor": {
        "details": "The implementation address is used to deploy UUPS proxies referencing it and to verify the plugin on the respective block explorers."
      },
      "implementation()": {
        "details": "The implementation can be instantiated via the `new` keyword, cloned via the minimal proxy pattern (see [ERC-1167](https://eips.ethereum.org/EIPS/eip-1167)), or proxied via the UUPS proxy pattern (see [ERC-1822](https://eips.ethereum.org/EIPS/eip-1822)).",
        "returns": {
          "_0": "The address of the plugin implementation contract."
        }
      },
      "prepareInstallation(address,bytes)": {
        "params": {
          "_dao": "The address of the installing DAO.",
          "_data": "The bytes-encoded data containing the input parameters for the installation as specified in the plugin's build metadata JSON file."
        },
        "returns": {
          "plugin": "The address of the `Plugin` contract being prepared for installation.",
          "preparedSetupData": "The deployed plugin's relevant data which consists of helpers and permissions."
        }
      },
      "prepareUninstallation(address,(address,address[],bytes))": {
        "params": {
          "_dao": "The address of the uninstalling DAO.",
          "_payload": "The relevant data necessary for the `prepareUninstallation`. See above."
        },
        "returns": {
          "permissions": "The array of multi-targeted permission operations to be applied by the `PluginSetupProcessor` to the uninstalling DAO."
        }
      },
      "prepareUpdate(address,uint16,(address,address[],bytes))": {
        "details": "The default implementation for the initial build 1 that reverts because no earlier build exists.",
        "params": {
          "_dao": "The address of the updating DAO.",
          "_fromBuild": "The build number of the plugin to update from.",
          "_payload": "The relevant data necessary for the `prepareUpdate`. See above."
        },
        "returns": {
          "_0": "The initialization data to be passed to upgradeable contracts when the update is applied in the `PluginSetupProcessor`.",
          "_1": "The deployed plugin's relevant data which consists of helpers and permissions."
        }
      },
      "protocolVersion()": {
        "details": "This version number is not to be confused with the `release` and `build` numbers found in the `Version.Tag` struct inside the `PluginRepo` contract being used to version plugin setup and associated plugin implementation contracts.",
        "returns": {
          "_0": "Returns the semantic Aragon OSx protocol version number."
        }
      },
      "supportsInterface(bytes4)": {
        "params": {
          "_interfaceId": "The ID of the interface."
        },
        "returns": {
          "_0": "Returns `true` if the interface is supported."
        }
      }
    },
    "title": "MyPluginSetup",
    "version": 1
  },
  "userdoc": {
    "errors": {
      "InvalidUpdatePath(uint16,uint16)": [
        {
          "notice": "Thrown when an update path is not available, for example, if this is the initial build."
        }
      ]
    },
    "kind": "user",
    "methods": {
      "constructor": {
        "notice": "Constructs the `PluginUpgradeableSetup` by storing the `MyPlugin` implementation address."
      },
      "implementation()": {
        "notice": "Returns the plugin implementation address."
      },
      "prepareInstallation(address,bytes)": {
        "notice": "Prepares the installation of a plugin."
      },
      "prepareUninstallation(address,(address,address[],bytes))": {
        "notice": "Prepares the uninstallation of a plugin."
      },
      "prepareUpdate(address,uint16,(address,address[],bytes))": {
        "notice": "Prepares the update of a plugin."
      },
      "protocolVersion()": {
        "notice": "Returns the semantic Aragon OSx protocol version number that the implementing contract is associated with."
      },
      "supportsInterface(bytes4)": {
        "notice": "Checks if this or the parent contract supports an interface by its ID."
      }
    },
    "version": 1
  },
  "storageLayout": {
    "storage": [],
    "types": null
  }
}